:100000000C943E000C9453000C9453000C94530039
:100010000C9453000C9453000C9453000C94530014
:100020000C9453000C9453000C9453000C94530004
:100030000C9453000C9453000C9453000C945300F4
:100040000C9453000C9453000C9453000C945300E4
:100050000C9453000C9453000C9453000C945300D4
:100060000C9453000C9453000C9453000C945300C4
:100070000C9453000C9453000C94530011241FBE95
:10008000CFEFD8E0DEBFCDBF11E0A0E0B1E0EAEBFA
:10009000F4E002C005900D92A033B107D9F70E9499
:1000A0001B020C945B020C94000082E082B908955C
:1000B00081E082B9089520E031E0FC01D90181E0BE
:1000C0009A2F921B961708F008955D91419191E047
:1000D000541390E08923F4CF089580EA80932E0191
:1000E0001092B90080E28093B8000895FC0180E886
:1000F0008083CF010C946D00982F9370891305C0F5
:10010000880F806A80932E0108958FEF0895FA0179
:1001100094EA24E89093BC008091BC0087FFFCCF58
:1001200080912E018093BB002093BC008091BC0085
:1001300087FFFCCF8091B900883161F784EA809312
:10014000BC008091BC0087FFFCCF80912E01809382
:10015000BB0084E88093BC008091BC0087FFFCCF8B
:100160007093BB0084E88093BC008091BC0087FF43
:10017000FCCF6093BB0084E88093BC008091BC00FE
:1001800087FFFCCF8091BC0087FFFCCF84EA80937F
:10019000BC008091BC0087FFFCCF80912E018F5F57
:1001A0008093BB0084E88093BC008091BC0087FFF3
:1001B000FCCF84E88093BC008091BC0087FFFCCF1B
:1001C0008091BB00808384E98093BC0080E0089527
:1001D00094EA34E89093BC008091BC0087FFFCCF88
:1001E00080912E018093BB003093BC008091BC00B5
:1001F00087FFFCCF8091B900883161F784EA809352
:10020000BC008091BC0087FFFCCF80912E018093C1
:10021000BB0084E88093BC008091BC0087FFFCCFCA
:100220007093BB0084E88093BC008091BC0087FF82
:10023000FCCF6093BB0084E88093BC008091BC003D
:1002400087FFFCCF84EA8093BC008091BC0087FFCD
:10025000FCCF80912E018F5F8093BB0084E8809358
:10026000BC008091BC0087FFFCCF84EC211105C04D
:1002700084E98093BC0080E00895213009F484E88B
:100280008093BC009091BC0097FFFCCFFA01909145
:10029000BB0091932150AF01E9CF94EA24E89093F9
:1002A000BC008091BC0087FFFCCF80912E01809321
:1002B000BB002093BC008091BC0087FFFCCF8091E5
:1002C000B900883161F784EA8093BC008091BC005A
:1002D00087FFFCCF80912E018093BB0084E8809340
:1002E000BC008091BC0087FFFCCF7093BB0084E80A
:1002F0008093BC008091BC0087FFFCCF6093BB0063
:1003000084E88093BC008091BC0087FFFCCF4093C1
:10031000BB0084E88093BC008091BC0087FFFCCFC9
:1003200084E98093BC0080E00895FB01260F372FFD
:10033000311DDC018C918150990B862B9F2B281746
:10034000390718F09C012F5F3F4F822F8E1B24EA44
:1003500034E82093BC009091BC0097FFFCCF9091B3
:100360002E019093BB003093BC009091BC0097FF8E
:10037000FCCF9091B900983161F794EA9093BC005A
:100380009091BC0097FFFCCF90912E019093BB0001
:1003900094E89093BC009091BC0097FFFCCFF09341
:1003A000BB0094E89093BC009091BC0097FFFCCFF9
:1003B000E093BB0094E89093BC009091BC0097FF41
:1003C000FCCF982F24E8911104C094E99093BC00CD
:1003D0000895FA0131913093BB002093BC00309115
:1003E000BC0037FFFCCF9150AF01EDCFDF92EF9211
:1003F000FF920F931F93CF93DF93D82ED92F7B01BA
:100400008A01C22F2C2FA801B7018D2D9D2F0E948C
:100410009501282F30E0E20EF31EC81B020F131FB8
:10042000C111F0CF80E0DF91CF911F910F91FF902C
:10043000EF90DF900895CDB7DEB7AF970FB6F89481
:10044000DEBF0FBECDBF81B18FEF81B98E01015DDF
:100450001F4FC8010E9476002EE240E051E070E09C
:1004600060E0C8010E94F6018FE097E20197F1F782
:1004700000C000002EE2AE014F5F5F4F70E060E011
:10048000C8010E94E8006EE2CE0101960E945B0066
:10049000282FC801222369F022E022B90E946C00B3
:1004A00090E080E0AF960FB6F894DEBF0FBECDBFF0
:0A04B000089521E0F2CFF894FFCF89
:1004BA002A502A4F2A4C2A592A542A452A432A487A
:1004CA002A4E2A492A512A552A452A202A4D2A4F94
:1004DA002A4E2A542A522A452A412A4C2A00A00086
:00000001FF
