:100000000C9440000C9468000C9468000C946800F8
:100010000C9468000C9468000C9468000C946800C0
:100020000C9468000C9468000C9468000C946800B0
:100030000C9468000C9468000C9468000C946800A0
:100040000C9468000C9468000C9468000C94680090
:100050000C9468000C9468000C9468000C94680080
:100060000C9468000C9468000C9468000C94680070
:100070000C9468000C9468000C946800630267029A
:1000800011241FBECFEFD8E0DEBFCDBF11E0A0E04E
:10009000B1E0ECEFF4E002C005900D92A631B1079B
:1000A000D9F721E0A6E1B1E001C01D92A731B20766
:1000B000E1F710E0CFE3D0E004C02197FE010E94F9
:1000C0006B02CE33D107C9F70E9435020C9471023E
:1000D0000C9400001092C5008FEC8093C400E0ECFB
:1000E000F0E08081806C8083E1ECF0E080818861C9
:1000F0008083E2ECF0E080818660808308959091B7
:10010000C00095FFFCCF8093C6000895089580EA53
:10011000809300011092B90080E28093B8000895A6
:10012000FC0180E88083CF010C948700982F9370A6
:10013000891305C0880F806A8093000108958FEFAE
:100140000895FA0194EA24E89093BC008091BC00E1
:1001500087FFFCCF809100018093BB002093BC00FF
:100160008091BC0087FFFCCF8091B900883161F796
:1001700084EA8093BC008091BC0087FFFCCF809113
:1001800000018093BB0084E88093BC008091BC0098
:1001900087FFFCCF7093BB0084E88093BC00809104
:1001A000BC0087FFFCCF6093BB0084E88093BC0059
:1001B0008091BC0087FFFCCF8091BC0087FFFCCF03
:1001C00084EA8093BC008091BC0087FFFCCF8091C3
:1001D00000018F5F8093BB0084E88093BC00809116
:1001E000BC0087FFFCCF84E88093BC008091BC00FA
:1001F00087FFFCCF8091BB00808384E98093BC00A3
:1002000080E0089594EA34E89093BC008091BC00AB
:1002100087FFFCCF809100018093BB003093BC002E
:100220008091BC0087FFFCCF8091B900883161F7D5
:1002300084EA8093BC008091BC0087FFFCCF809152
:1002400000018093BB0084E88093BC008091BC00D7
:1002500087FFFCCF7093BB0084E88093BC00809143
:10026000BC0087FFFCCF6093BB0084E88093BC0098
:100270008091BC0087FFFCCF84EA8093BC00809112
:10028000BC0087FFFCCF809100018F5F8093BB0093
:1002900084E88093BC008091BC0087FFFCCF84EC95
:1002A000211105C084E98093BC0080E008952130CD
:1002B00009F484E88093BC009091BC0097FFFCCFC8
:1002C000FA019091BB0091932150AF01E9CF94EADC
:1002D00024E89093BC008091BC0087FFFCCF809104
:1002E00000018093BB002093BC008091BC0087FF7D
:1002F000FCCF8091B900883161F784EA8093BC001B
:100300008091BC0087FFFCCF809100018093BB00EF
:1003100084E88093BC008091BC0087FFFCCF709381
:10032000BB0084E88093BC008091BC0087FFFCCFB9
:100330006093BB0084E88093BC008091BC0087FF81
:10034000FCCF4093BB0084E88093BC008091BC004C
:1003500087FFFCCF84E98093BC0080E00895FB0117
:10036000260F372F311DDC018C918150990B862B84
:100370009F2B2817390718F09C012F5F3F4F822FC2
:100380008E1B24EA34E82093BC009091BC0097FFB8
:10039000FCCF909100019093BB003093BC009091F2
:1003A000BC0097FFFCCF9091B900983161F794EAB7
:1003B0009093BC009091BC0097FFFCCF90910001FE
:1003C0009093BB0094E89093BC009091BC0097FF81
:1003D000FCCFF093BB0094E89093BC009091BC00DC
:1003E00097FFFCCFE093BB0094E89093BC00909102
:1003F000BC0097FFFCCF982F24E8911104C094E92A
:100400009093BC000895FA0131913093BB00209382
:10041000BC003091BC0037FFFCCF9150AF01EDCF55
:10042000DF92EF92FF920F931F93CF93DF93D82E1B
:10043000D92F7B018A01C22F2C2FA801B7018D2D46
:100440009D2F0E94AF01282F30E0E20EF31EC81B43
:10045000020F131FC111F0CF80E0DF91CF911F91E8
:100460000F91FF90EF90DF900895CDB7DEB76597BD
:100470000FB6F894DEBF0FBECDBF81B18FEF81B94B
:1004800085E1E1E0F1E0DE01119601900D928A959F
:10049000E1F70E946A008E010F5F1F4F7E0185E623
:1004A000E80EF11CF80181918F010E947F000E156A
:1004B0001F05C1F790E080E065960FB6F894DEBFA7
:1004C0000FBECDBF089586E191E00C94900086E1C7
:1004D00091E00C948600EE0FFF1F0590F491E02D43
:1004E000099410E0CFE3D0E004C0FE010E946B024B
:0C04F0002196C034D107C9F7F894FFCF63
:1004FC00A04C6520726F626F7420656E20494E4669
:06050C00313930300A0015
:00000001FF
